S00B00004144432E7372656351
S11300000C9434000C943E000C943E000C943E007E
S11300100C943E000C943E000C943E000C943E0064
S11300200C943E000C943E000C943E000C943E0054
S11300300C943E000C943E000C943E000C943E0044
S11300400C943E000C943E000C943E000C943E0034
S11300500C943E000C943E000C943E000C943E0024
S11300600C943E000C943E0011241FBECFEFD8E048
S1130070DEBFCDBF0E9440000C9493000C9400009E
S1130080ECE7F0E080818F778083808180648083D7
S113009080818F7D80838081877F808380818B7F37
S11300A0808380818D7F808380818E7F8083EAE757
S11300B0F0E0808180688083808180648083808197
S11300C08062808380818460808380818D7F80834F
S11300D080818E7F808384B1816084B9EAE7F0E017
S11300E08081806880838081806480838081806156
S11300F0808380917800909179009C01220F331FB6
S1130100220F331F820F931F292F2695269530E047
S11301102330310524F085B1816085B9DFCF85B105
S10D01208E7F85B9DBCFF894FFCF82
S9030000FC
